{
  "contractName": "ModelRepository",
  "abi": [
    {
      "inputs": [],
      "payable": false,
      "stateMutability": "nonpayable",
      "type": "constructor"
    },
    {
      "constant": false,
      "inputs": [
        {
          "name": "name",
          "type": "string"
        },
        {
          "name": "initialError",
          "type": "uint256"
        },
        {
          "name": "targetError",
          "type": "uint256"
        },
        {
          "name": "weights",
          "type": "string[]"
        }
      ],
      "name": "addModel",
      "outputs": [],
      "payable": true,
      "stateMutability": "payable",
      "type": "function"
    },
    {
      "constant": true,
      "inputs": [
        {
          "name": "modelId",
          "type": "uint256"
        }
      ],
      "name": "getModel",
      "outputs": [
        {
          "name": "",
          "type": "string"
        },
        {
          "name": "",
          "type": "address"
        },
        {
          "name": "",
          "type": "uint256"
        },
        {
          "name": "",
          "type": "uint256"
        },
        {
          "name": "",
          "type": "uint256"
        },
        {
          "name": "",
          "type": "string[]"
        }
      ],
      "payable": false,
      "stateMutability": "view",
      "type": "function"
    },
    {
      "constant": false,
      "inputs": [
        {
          "name": "modelId",
          "type": "uint256"
        },
        {
          "name": "gradientAddress",
          "type": "string[]"
        }
      ],
      "name": "addGradient",
      "outputs": [],
      "payable": false,
      "stateMutability": "nonpayable",
      "type": "function"
    },
    {
      "constant": true,
      "inputs": [
        {
          "name": "modelId",
          "type": "uint256"
        }
      ],
      "name": "getNumGradientsforModel",
      "outputs": [
        {
          "name": "num",
          "type": "uint256"
        }
      ],
      "payable": false,
      "stateMutability": "view",
      "type": "function"
    }
  ],
  "bytecode": "0x608060405234801561001057600080fd5b50336000806101000a81548173ffffffffffffffffffffffffffffffffffffffff021916908373ffffffffffffffffffffffffffffffffffffffff1602179055506112a5806100606000396000f300608060405260043610610062576000357c0100000000000000000000000000000000000000000000000000000000900463ffffffff168063013a37f414610067578063171d5cc6146100a45780636d361694146100cd57806370d9a8e71461010f575b600080fd5b34801561007357600080fd5b5061008e60048036036100899190810190610ea6565b61012b565b60405161009b91906110e1565b60405180910390f35b3480156100b057600080fd5b506100cb60048036036100c69190810190610ecf565b610189565b005b3480156100d957600080fd5b506100f460048036036100ef9190810190610ea6565b61045e565b60405161010696959493929190611052565b60405180910390f35b61012960048036036101249190810190610e13565b610924565b005b60008060009150600090505b600280549050811015610180578260028281548110151561015457fe5b9060005260206000209060070201600301541415610173576001820191505b8080600101915050610137565b81915050919050565b610191610b40565b610199610b40565b6101a1610b5a565b60006001868154811015156101b257fe5b90600052602060002090600a020160010160009054906101000a900473ffffffffffffffffffffffffffffffffffffffff1673ffffffffffffffffffffffffffffffffffffffff161415151561023d576040517f08c379a0000000000000000000000000000000000000000000000000000000008152600401610234906110c1565b60405180910390fd5b83600081518110151561024c57fe5b90602001906020020151836000018190525083600181518110151561026d57fe5b906020019060200201518360200181905250602060405190810160405280600081525082600001819052506020604051908101604052806000815250826020018190525082816040018190525033816020019073ffffffffffffffffffffffffffffffffffffffff16908173ffffffffffffffffffffffffffffffffffffffff1681525050848160600181815250506000816080018181525050818160a0018190525060008160000190151590811515815250506002819080600181540180825580915050906001820390600052602060002090600702016000909192909190915060008201518160000160006101000a81548160ff02191690831515021790555060208201518160000160016101000a81548173ffffffffffffffffffffffffffffffffffffffff021916908373ffffffffffffffffffffffffffffffffffffffff16021790555060408201518160010160008201518160000190805190602001906103db929190610bb6565b5060208201518160010190805190602001906103f8929190610bb6565b505050606082015181600301556080820151816004015560a0820151816005016000820151816000019080519060200190610434929190610bb6565b506020820151816001019080519060200190610451929190610bb6565b5050505050505050505050565b60606000806000806060610470610c36565b606060018981548110151561048157fe5b90600052602060002090600a02016101006040519081016040529081600082018054600181600116156101000203166002900480601f0160208091040260200160405190810160405280929190818152602001828054600181600116156101000203166002900480156105355780601f1061050a57610100808354040283529160200191610535565b820191906000526020600020905b81548152906001019060200180831161051857829003601f168201915b505050505081526020016001820160009054906101000a900473ffffffffffffffffffffffffffffffffffffffff1673ffffffffffffffffffffffffffffffffffffffff1673ffffffffffffffffffffffffffffffffffffffff16815260200160028201604080519081016040529081600082018054600181600116156101000203166002900480601f01602080910402602001604051908101604052809291908181526020018280546001816001161561010002031660029004801561063d5780601f106106125761010080835404028352916020019161063d565b820191906000526020600020905b81548152906001019060200180831161062057829003601f168201915b50505050508152602001600182018054600181600116156101000203166002900480601f0160208091040260200160405190810160405280929190818152602001828054600181600116156101000203166002900480156106df5780601f106106b4576101008083540402835291602001916106df565b820191906000526020600020905b8154815290600101906020018083116106c257829003601f168201915b505050505081525050815260200160048201604080519081016040529081600082018054600181600116156101000203166002900480601f0160208091040260200160405190810160405280929190818152602001828054600181600116156101000203166002900480156107955780601f1061076a57610100808354040283529160200191610795565b820191906000526020600020905b81548152906001019060200180831161077857829003601f168201915b50505050508152602001600182018054600181600116156101000203166002900480601f0160208091040260200160405190810160405280929190818152602001828054600181600116156101000203166002900480156108375780601f1061080c57610100808354040283529160200191610837565b820191906000526020600020905b81548152906001019060200180831161081a57829003601f168201915b5050505050815250508152602001600682015481526020016007820154815260200160088201548152602001600982015481525050915060026040519080825280602002602001820160405280156108a357816020015b606081526020019060019003908161088e5790505b5090508160600151600001518160008151811015156108be57fe5b906020019060200201819052508160600151602001518160018151811015156108e357fe5b906020019060200201819052508160000151826020015183608001518460a001518560e0015185859550975097509750975097509750505091939550919395565b61092c610b40565b610934610c36565b82600081518110151561094357fe5b90602001906020020151826000018190525082600181518110151561096457fe5b9060200190602002015182602001819052508581600001819052508181606001819052508181604001819052503481608001818152505033816020019073ffffffffffffffffffffffffffffffffffffffff16908173ffffffffffffffffffffffffffffffffffffffff1681525050848160a0018181525050848160c0018181525050838160e00181815250506001819080600181540180825580915050906001820390600052602060002090600a0201600090919290919091506000820151816000019080519060200190610a3b929190610bb6565b5060208201518160010160006101000a81548173ffffffffffffffffffffffffffffffffffffffff021916908373ffffffffffffffffffffffffffffffffffffffff1602179055506040820151816002016000820151816000019080519060200190610aa8929190610bb6565b506020820151816001019080519060200190610ac5929190610bb6565b5050506060820151816004016000820151816000019080519060200190610aed929190610bb6565b506020820151816001019080519060200190610b0a929190610bb6565b5050506080820151816006015560a0820151816007015560c0820151816008015560e08201518160090155505050505050505050565b604080519081016040528060608152602001606081525090565b61010060405190810160405280600015158152602001600073ffffffffffffffffffffffffffffffffffffffff168152602001610b95610c9e565b81526020016000815260200160008152602001610bb0610c9e565b81525090565b828054600181600116156101000203166002900490600052602060002090601f016020900481019282601f10610bf757805160ff1916838001178555610c25565b82800160010185558215610c25579182015b82811115610c24578251825591602001919060010190610c09565b5b509050610c329190610cb8565b5090565b6101406040519081016040528060608152602001600073ffffffffffffffffffffffffffffffffffffffff168152602001610c6f610c9e565b8152602001610c7c610c9e565b8152602001600081526020016000815260200160008152602001600081525090565b604080519081016040528060608152602001606081525090565b610cda91905b80821115610cd6576000816000905550600101610cbe565b5090565b90565b600082601f8301121515610cf057600080fd5b8135610d03610cfe82611129565b6110fc565b9150818183526020840193506020810190508360005b83811015610d495781358601610d2f8882610d53565b845260208401935060208301925050600181019050610d19565b5050505092915050565b600082601f8301121515610d6657600080fd5b8135610d79610d7482611151565b6110fc565b91508082526020830160208301858383011115610d9557600080fd5b610da0838284611218565b50505092915050565b600082601f8301121515610dbc57600080fd5b8135610dcf610dca8261117d565b6110fc565b91508082526020830160208301858383011115610deb57600080fd5b610df6838284611218565b50505092915050565b6000610e0b823561120e565b905092915050565b60008060008060808587031215610e2957600080fd5b600085013567ffffffffffffffff811115610e4357600080fd5b610e4f87828801610da9565b9450506020610e6087828801610dff565b9350506040610e7187828801610dff565b925050606085013567ffffffffffffffff811115610e8e57600080fd5b610e9a87828801610cdd565b91505092959194509250565b600060208284031215610eb857600080fd5b6000610ec684828501610dff565b91505092915050565b60008060408385031215610ee257600080fd5b6000610ef085828601610dff565b925050602083013567ffffffffffffffff811115610f0d57600080fd5b610f1985828601610cdd565b9150509250929050565b610f2c816111e4565b82525050565b6000610f3d826111b6565b80845260208401935083602082028501610f56856111a9565b60005b84811015610f8f578383038852610f71838351610fd6565b9250610f7c826111d7565b9150602088019750600181019050610f59565b508196508694505050505092915050565b6000610fab826111cc565b808452610fbf816020860160208601611227565b610fc88161125a565b602085010191505092915050565b6000610fe1826111c1565b808452610ff5816020860160208601611227565b610ffe8161125a565b602085010191505092915050565b6000601382527f496e76616c6964204d6f64656c204f776e6572000000000000000000000000006020830152604082019050919050565b61104c81611204565b82525050565b600060c082019050818103600083015261106c8189610fa0565b905061107b6020830188610f23565b6110886040830187611043565b6110956060830186611043565b6110a26080830185611043565b81810360a08301526110b48184610f32565b9050979650505050505050565b600060208201905081810360008301526110da8161100c565b9050919050565b60006020820190506110f66000830184611043565b92915050565b6000604051905081810181811067ffffffffffffffff8211171561111f57600080fd5b8060405250919050565b600067ffffffffffffffff82111561114057600080fd5b602082029050602081019050919050565b600067ffffffffffffffff82111561116857600080fd5b601f19601f8301169050602081019050919050565b600067ffffffffffffffff82111561119457600080fd5b601f19601f8301169050602081019050919050565b6000602082019050919050565b600081519050919050565b600081519050919050565b600081519050919050565b6000602082019050919050565b600073ffffffffffffffffffffffffffffffffffffffff82169050919050565b6000819050919050565b6000819050919050565b82818337600083830152505050565b60005b8381101561124557808201518184015260208101905061122a565b83811115611254576000848401525b50505050565b6000601f19601f83011690509190505600a265627a7a723058202884eae5e72bd95f944a18195cb06c682614c1a5d680d8a2fec10d14da61f87e6c6578706572696d656e74616cf50037",
  "source": "pragma solidity ^0.4.23;\npragma experimental ABIEncoderV2;\n\ncontract ModelRepository {\n    address owner;\n    Model[] models;\n    Gradient[] grads;\n\n    struct Gradient {\n        bool evaluated;\n        // submitted from miner\n        address from;\n        IPFS grads;\n        uint modelId;\n        // submitted from trainer\n        uint newModelError;\n        IPFS newWeights;\n    }\n\n    struct Model {\n        string name;\n        address owner;\n        IPFS initialWeights;\n        IPFS weights;\n        uint bounty;\n        uint initialError;\n        uint bestError;\n        uint targetError;\n    }\n\n    struct IPFS {\n        string first;\n        string second;\n    }\n\n    modifier onlyByModelOwner(uint gradientId) {\n        require(msg.sender == models[grads[gradientId].modelId].owner, \"You are not model owner!\");\n        _;\n    }\n\n    modifier onlyIfGradientNotYetEvaluated(uint gradientId) {\n        require(grads[gradientId].evaluated == false, \"Gradient evaluated already!\");\n        _;\n    }\n\n    function addModel(string name, uint initialError, uint targetError, string[] weights) public payable {\n\n        IPFS memory ipfsWeights;\n        ipfsWeights.first = weights[0];\n        ipfsWeights.second = weights[1];\n\n        Model memory newModel;\n        newModel.name = name;\n        newModel.weights = ipfsWeights;\n        newModel.initialWeights = ipfsWeights;\n\n        newModel.bounty = msg.value;\n        newModel.owner = msg.sender;\n\n        newModel.initialError = initialError;\n        newModel.bestError = initialError;\n        newModel.targetError = targetError;\n\n        models.push(newModel);\n    }\n\n    function getModel(uint modelId) public view returns (string, address,uint,uint,uint,string[]) {\n        Model memory currentModel;\n        currentModel = models[modelId];\n        string[] memory weights = new string[](2);\n\n        weights[0] = currentModel.weights.first;\n        weights[1] = currentModel.weights.second;\n\n        return ( currentModel.name, currentModel.owner, \n        currentModel.bounty, currentModel.initialError, currentModel.targetError, weights);\n    }\n\n    function addGradient(uint modelId, string[] gradientAddress) public {\n        require(models[modelId].owner != 0, \"Invalid Model Owner\");\n        IPFS memory ipfsGradientAddress;\n        ipfsGradientAddress.first = gradientAddress[0];\n        ipfsGradientAddress.second = gradientAddress[1];\n\n        IPFS memory newWeights;\n        newWeights.first = \"\";\n        newWeights.second = \"\";\n\n        Gradient memory newGrad;\n        newGrad.grads = ipfsGradientAddress;\n        newGrad.from = msg.sender;\n        newGrad.modelId = modelId;\n        newGrad.newModelError = 0;\n        newGrad.newWeights = newWeights;\n        newGrad.evaluated = false;\n\n        grads.push(newGrad);\n    }\n\n    function getNumGradientsforModel(uint modelId) public view returns (uint num) {\n        num = 0;\n        for (uint i = 0; i<grads.length; i++) {\n            if (grads[i].modelId == modelId) {\n                num += 1;\n            }\n        }\n        return num;\n    }\n\n    constructor() public {\n        owner = msg.sender;\n    }\n}",
  "sourcePath": "/home/devil443/Desktop/blockAi/block/contracts/ModelRepository.sol",
  "compiler": {
    "name": "solc",
    "version": "0.4.24+commit.e67f0147.Emscripten.clang"
  },
  "schemaVersion": "2.0.1",
  "updatedAt": "2018-09-01T05:53:27.082Z"
}